{
  "contractName": "Airdropper",
  "abi": [
    {
      "inputs": [
        {
          "internalType": "address",
          "name": "_tokenAddr",
          "type": "address"
        },
        {
          "internalType": "address[]",
          "name": "_to",
          "type": "address[]"
        },
        {
          "internalType": "uint256",
          "name": "_value",
          "type": "uint256"
        }
      ],
      "name": "multisend",
      "outputs": [
        {
          "internalType": "bool",
          "name": "",
          "type": "bool"
        }
      ],
      "stateMutability": "nonpayable",
      "type": "function"
    }
  ],
  "bytecode": "0x608060405234801561001057600080fd5b50610281806100206000396000f3fe608060405234801561001057600080fd5b506004361061002b5760003560e01c8063ccdd197914610030575b600080fd5b6101106004803603606081101561004657600080fd5b81019080803573ffffffffffffffffffffffffffffffffffffffff1690602001909291908035906020019064010000000081111561008357600080fd5b82018360208201111561009557600080fd5b803590602001918460208302840111640100000000831117156100b757600080fd5b919080806020026020016040519081016040528093929190818152602001838360200280828437600081840152601f19601f82011690508083019250505050505050919291929080359060200190929190505050610128565b60405180821515815260200191505060405180910390f35b600060968351111561013657fe5b60005b83518160ff16101561023f57600115158573ffffffffffffffffffffffffffffffffffffffff166323b872dd33878560ff168151811061017557fe5b6020026020010151876040518463ffffffff1660e01b8152600401808473ffffffffffffffffffffffffffffffffffffffff1681526020018373ffffffffffffffffffffffffffffffffffffffff1681526020018281526020019350505050602060405180830381600087803b1580156101ee57600080fd5b505af1158015610202573d6000803e3d6000fd5b505050506040513d602081101561021857600080fd5b810190808051906020019092919050505015151461023257fe5b8080600101915050610139565b5060019050939250505056fea2646970667358221220169ae589ec737b82d1b07f51c32dfb30d4411c3a718f37e08781d4bdff02258164736f6c63430007060033",
  "immutableReferences": {},
  "source": "// SPDX-License-Identifier: MIT\r\npragma solidity >=0.6.0 <0.8.0;\r\n\r\nimport \"@openzeppelin/contracts/token/ERC20/ERC20.sol\";\r\n\r\n\r\ncontract Airdropper {\r\n    function multisend(address _tokenAddr, address[] memory _to, uint256 _value) public returns (bool)  {\r\n        assert(_to.length <= 150);\r\n        // loop through to addresses and send value\r\n        for (uint8 i = 0; i < _to.length; i++) {\r\n            assert((ERC20(_tokenAddr).transferFrom(msg.sender, _to[i], _value)) == true);\r\n        }\r\n\r\n        return true;\r\n    }\r\n}",
  "sourcePath": "/Users/umar/Desktop/SunflowerFarmer/src/contracts/Airdropper.sol",
  "compiler": {
    "name": "solc",
    "version": "0.7.6+commit.7338295f.Emscripten.clang"
  },
  "schemaVersion": "3.4.16",
  "updatedAt": "2023-12-09T15:16:47.171Z",
  "devdoc": {
    "kind": "dev",
    "methods": {},
    "version": 1
  },
  "userdoc": {
    "kind": "user",
    "methods": {},
    "version": 1
  }
}