{
  "contractName": "CommunityCrafting",
  "abi": [
    {
      "inputs": [],
      "stateMutability": "nonpayable",
      "type": "constructor"
    },
    {
      "stateMutability": "payable",
      "type": "receive"
    },
    {
      "inputs": [
        {
          "internalType": "address",
          "name": "itemAddress",
          "type": "address"
        },
        {
          "internalType": "uint256",
          "name": "sff",
          "type": "uint256"
        },
        {
          "internalType": "address",
          "name": "owner",
          "type": "address"
        }
      ],
      "name": "createRecipe",
      "outputs": [],
      "stateMutability": "nonpayable",
      "type": "function"
    },
    {
      "inputs": [
        {
          "internalType": "address",
          "name": "recipeAddress",
          "type": "address"
        }
      ],
      "name": "craft",
      "outputs": [],
      "stateMutability": "payable",
      "type": "function"
    },
    {
      "inputs": [
        {
          "internalType": "uint256",
          "name": "sff",
          "type": "uint256"
        },
        {
          "internalType": "address",
          "name": "owner",
          "type": "address"
        }
      ],
      "name": "payOut",
      "outputs": [],
      "stateMutability": "payable",
      "type": "function"
    },
    {
      "inputs": [
        {
          "internalType": "address",
          "name": "recipe",
          "type": "address"
        }
      ],
      "name": "getRecipe",
      "outputs": [
        {
          "components": [
            {
              "internalType": "address",
              "name": "itemAddress",
              "type": "address"
            },
            {
              "internalType": "uint256",
              "name": "sff",
              "type": "uint256"
            },
            {
              "internalType": "address",
              "name": "owner",
              "type": "address"
            },
            {
              "internalType": "bool",
              "name": "exists",
              "type": "bool"
            },
            {
              "internalType": "uint256",
              "name": "createdAt",
              "type": "uint256"
            }
          ],
          "internalType": "struct CommunityCrafting.CommunityRecipe",
          "name": "",
          "type": "tuple"
        }
      ],
      "stateMutability": "view",
      "type": "function"
    }
  ],
  "bytecode": "0x608060405234801561001057600080fd5b50336000806101000a81548173ffffffffffffffffffffffffffffffffffffffff021916908373ffffffffffffffffffffffffffffffffffffffff160217905550610a9f806100606000396000f3fe6080604052600436106100435760003560e01c8063050616161461004f5780637c9c17781461006b578063a5166917146100a8578063fc67b27d146100c45761004a565b3661004a57005b600080fd5b61006960048036038101906100649190610747565b6100ed565b005b34801561007757600080fd5b50610092600480360381019061008d91906106cf565b6100f1565b60405161009f919061097f565b60405180910390f35b6100c260048036038101906100bd91906106cf565b610225565b005b3480156100d057600080fd5b506100eb60048036038101906100e691906106f8565b610416565b005b5050565b6100f9610648565b600160008373ffffffffffffffffffffffffffffffffffffffff1673ffffffffffffffffffffffffffffffffffffffff1681526020019081526020016000206040518060a00160405290816000820160009054906101000a900473ffffffffffffffffffffffffffffffffffffffff1673ffffffffffffffffffffffffffffffffffffffff1673ffffffffffffffffffffffffffffffffffffffff168152602001600182015481526020016002820160009054906101000a900473ffffffffffffffffffffffffffffffffffffffff1673ffffffffffffffffffffffffffffffffffffffff1673ffffffffffffffffffffffffffffffffffffffff1681526020016002820160149054906101000a900460ff161515151581526020016003820154815250509050919050565b6000600160008373ffffffffffffffffffffffffffffffffffffffff1673ffffffffffffffffffffffffffffffffffffffff1681526020019081526020016000206040518060a00160405290816000820160009054906101000a900473ffffffffffffffffffffffffffffffffffffffff1673ffffffffffffffffffffffffffffffffffffffff1673ffffffffffffffffffffffffffffffffffffffff168152602001600182015481526020016002820160009054906101000a900473ffffffffffffffffffffffffffffffffffffffff1673ffffffffffffffffffffffffffffffffffffffff1673ffffffffffffffffffffffffffffffffffffffff1681526020016002820160149054906101000a900460ff1615151515815260200160038201548152505090508060600151610392576040517f08c379a00000000000000000000000000000000000000000000000000000000081526004016103899061095f565b60405180910390fd5b6103a4816020015182604001516100ed565b8173ffffffffffffffffffffffffffffffffffffffff166340c10f193360016040518363ffffffff1660e01b81526004016103e09291906108f6565b600060405180830381600087803b1580156103fa57600080fd5b505af115801561040e573d6000803e3d6000fd5b505050505050565b600160008473ffffffffffffffffffffffffffffffffffffffff1673ffffffffffffffffffffffffffffffffffffffff16815260200190815260200160002060020160149054906101000a900460ff16156104a6576040517f08c379a000000000000000000000000000000000000000000000000000000000815260040161049d9061093f565b60405180910390fd5b600082116104e9576040517f08c379a00000000000000000000000000000000000000000000000000000000081526004016104e09061091f565b60405180910390fd5b6040518060a001604052808473ffffffffffffffffffffffffffffffffffffffff1681526020018381526020018273ffffffffffffffffffffffffffffffffffffffff16815260200160011515815260200142815250600160008573ffffffffffffffffffffffffffffffffffffffff1673ffffffffffffffffffffffffffffffffffffffff16815260200190815260200160002060008201518160000160006101000a81548173ffffffffffffffffffffffffffffffffffffffff021916908373ffffffffffffffffffffffffffffffffffffffff1602179055506020820151816001015560408201518160020160006101000a81548173ffffffffffffffffffffffffffffffffffffffff021916908373ffffffffffffffffffffffffffffffffffffffff16021790555060608201518160020160146101000a81548160ff02191690831515021790555060808201518160030155905050505050565b6040518060a00160405280600073ffffffffffffffffffffffffffffffffffffffff16815260200160008152602001600073ffffffffffffffffffffffffffffffffffffffff168152602001600015158152602001600081525090565b6000813590506106b481610a3b565b92915050565b6000813590506106c981610a52565b92915050565b6000602082840312156106e157600080fd5b60006106ef848285016106a5565b91505092915050565b60008060006060848603121561070d57600080fd5b600061071b868287016106a5565b935050602061072c868287016106ba565b925050604061073d868287016106a5565b9150509250925092565b6000806040838503121561075a57600080fd5b6000610768858286016106ba565b9250506020610779858286016106a5565b9150509250929050565b61078c816109f3565b82525050565b61079b816109ab565b82525050565b6107aa816109bd565b82525050565b6107b981610a05565b82525050565b60006107cc60208361099a565b91507f434f4d4d554e4954595f5245434950455f52455155495245535f414d4f554e546000830152602082019050919050565b600061080c60158361099a565b91507f5245434950455f414c52454144595f45584953545300000000000000000000006000830152602082019050919050565b600061084c601f8361099a565b91507f434f4d4d554e4954595f5245434950455f444f45535f4e4f545f4558495354006000830152602082019050919050565b60a0820160008201516108956000850182610792565b5060208201516108a860208501826108e7565b5060408201516108bb6040850182610792565b5060608201516108ce60608501826107a1565b5060808201516108e160808501826108e7565b50505050565b6108f0816109e9565b82525050565b600060408201905061090b6000830185610783565b61091860208301846107b0565b9392505050565b60006020820190508181036000830152610938816107bf565b9050919050565b60006020820190508181036000830152610958816107ff565b9050919050565b600060208201905081810360008301526109788161083f565b9050919050565b600060a082019050610994600083018461087f565b92915050565b600082825260208201905092915050565b60006109b6826109c9565b9050919050565b60008115159050919050565b600073ffffffffffffffffffffffffffffffffffffffff82169050919050565b6000819050919050565b60006109fe82610a17565b9050919050565b6000610a10826109e9565b9050919050565b6000610a2282610a29565b9050919050565b6000610a34826109c9565b9050919050565b610a44816109ab565b8114610a4f57600080fd5b50565b610a5b816109e9565b8114610a6657600080fd5b5056fea2646970667358221220cda774fdc9afe6e70f84ee1680f86e3b6fe2c9870fdc5a740e6dc997095a25fb64736f6c63430007060033",
  "immutableReferences": {},
  "source": "// SPDX-License-Identifier: MIT\r\npragma solidity >=0.6.0 <0.8.0;\r\npragma abicoder v2;\r\nimport \"@openzeppelin/contracts/token/ERC20/ERC20.sol\";\r\nimport \"@openzeppelin/contracts/math/SafeMath.sol\";\r\n\r\n// File: contracts/interfaces/IUniswapV2Router01.sol\r\n\r\npragma solidity >=0.6.2;\r\n\r\ninterface IUniswapV2Router01 {\r\n    function factory() external pure returns (address);\r\n    function WETH() external pure returns (address);\r\n\r\n    function addLiquidity(\r\n        address tokenA,\r\n        address tokenB,\r\n        uint amountADesired,\r\n        uint amountBDesired,\r\n        uint amountAMin,\r\n        uint amountBMin,\r\n        address to,\r\n        uint deadline\r\n    ) external returns (uint amountA, uint amountB, uint liquidity);\r\n    function addLiquidityETH(\r\n        address token,\r\n        uint amountTokenDesired,\r\n        uint amountTokenMin,\r\n        uint amountETHMin,\r\n        address to,\r\n        uint deadline\r\n    ) external payable returns (uint amountToken, uint amountETH, uint liquidity);\r\n    function removeLiquidity(\r\n        address tokenA,\r\n        address tokenB,\r\n        uint liquidity,\r\n        uint amountAMin,\r\n        uint amountBMin,\r\n        address to,\r\n        uint deadline\r\n    ) external returns (uint amountA, uint amountB);\r\n    function removeLiquidityETH(\r\n        address token,\r\n        uint liquidity,\r\n        uint amountTokenMin,\r\n        uint amountETHMin,\r\n        address to,\r\n        uint deadline\r\n    ) external returns (uint amountToken, uint amountETH);\r\n    function removeLiquidityWithPermit(\r\n        address tokenA,\r\n        address tokenB,\r\n        uint liquidity,\r\n        uint amountAMin,\r\n        uint amountBMin,\r\n        address to,\r\n        uint deadline,\r\n        bool approveMax, uint8 v, bytes32 r, bytes32 s\r\n    ) external returns (uint amountA, uint amountB);\r\n    function removeLiquidityETHWithPermit(\r\n        address token,\r\n        uint liquidity,\r\n        uint amountTokenMin,\r\n        uint amountETHMin,\r\n        address to,\r\n        uint deadline,\r\n        bool approveMax, uint8 v, bytes32 r, bytes32 s\r\n    ) external returns (uint amountToken, uint amountETH);\r\n    function swapExactTokensForTokens(\r\n        uint amountIn,\r\n        uint amountOutMin,\r\n        address[] calldata path,\r\n        address to,\r\n        uint deadline\r\n    ) external returns (uint[] memory amounts);\r\n    function swapTokensForExactTokens(\r\n        uint amountOut,\r\n        uint amountInMax,\r\n        address[] calldata path,\r\n        address to,\r\n        uint deadline\r\n    ) external returns (uint[] memory amounts);\r\n    function swapExactETHForTokens(uint amountOutMin, address[] calldata path, address to, uint deadline)\r\n        external\r\n        payable\r\n        returns (uint[] memory amounts);\r\n    function swapTokensForExactETH(uint amountOut, uint amountInMax, address[] calldata path, address to, uint deadline)\r\n        external\r\n        returns (uint[] memory amounts);\r\n    function swapExactTokensForETH(uint amountIn, uint amountOutMin, address[] calldata path, address to, uint deadline)\r\n        external\r\n        returns (uint[] memory amounts);\r\n    function swapETHForExactTokens(uint amountOut, address[] calldata path, address to, uint deadline)\r\n        external\r\n        payable\r\n        returns (uint[] memory amounts);\r\n\r\n    function quote(uint amountA, uint reserveA, uint reserveB) external pure returns (uint amountB);\r\n    function getAmountOut(uint amountIn, uint reserveIn, uint reserveOut) external pure returns (uint amountOut);\r\n    function getAmountIn(uint amountOut, uint reserveIn, uint reserveOut) external pure returns (uint amountIn);\r\n    function getAmountsOut(uint amountIn, address[] calldata path) external view returns (uint[] memory amounts);\r\n    function getAmountsIn(uint amountOut, address[] calldata path) external view returns (uint[] memory amounts);\r\n}\r\n\r\n\r\npragma solidity >=0.6.2;\r\n\r\n\r\ninterface IUniswapV2Router02 is IUniswapV2Router01 {\r\n    function removeLiquidityETHSupportingFeeOnTransferTokens(\r\n        address token,\r\n        uint liquidity,\r\n        uint amountTokenMin,\r\n        uint amountETHMin,\r\n        address to,\r\n        uint deadline\r\n    ) external returns (uint amountETH);\r\n    function removeLiquidityETHWithPermitSupportingFeeOnTransferTokens(\r\n        address token,\r\n        uint liquidity,\r\n        uint amountTokenMin,\r\n        uint amountETHMin,\r\n        address to,\r\n        uint deadline,\r\n        bool approveMax, uint8 v, bytes32 r, bytes32 s\r\n    ) external returns (uint amountETH);\r\n\r\n    function swapExactTokensForTokensSupportingFeeOnTransferTokens(\r\n        uint amountIn,\r\n        uint amountOutMin,\r\n        address[] calldata path,\r\n        address to,\r\n        uint deadline\r\n    ) external;\r\n    function swapExactETHForTokensSupportingFeeOnTransferTokens(\r\n        uint amountOutMin,\r\n        address[] calldata path,\r\n        address to,\r\n        uint deadline\r\n    ) external payable;\r\n    function swapExactTokensForETHSupportingFeeOnTransferTokens(\r\n        uint amountIn,\r\n        uint amountOutMin,\r\n        address[] calldata path,\r\n        address to,\r\n        uint deadline\r\n    ) external;\r\n}\r\n\r\n// pragma solidity >=0.5.0;\r\n\r\ninterface IUniswapV2Factory {\r\n    event PairCreated(address indexed token0, address indexed token1, address pair, uint);\r\n\r\n    function feeTo() external view returns (address);\r\n    function feeToSetter() external view returns (address);\r\n\r\n    function getPair(address tokenA, address tokenB) external view returns (address pair);\r\n    function allPairs(uint) external view returns (address pair);\r\n    function allPairsLength() external view returns (uint);\r\n\r\n    function createPair(address tokenA, address tokenB) external returns (address pair);\r\n\r\n    function setFeeTo(address) external;\r\n    function setFeeToSetter(address) external;\r\n}\r\n\r\n\r\npragma solidity >=0.5.0;\r\n\r\ninterface IUniswapV2Pair {\r\n    event Approval(address indexed owner, address indexed spender, uint value);\r\n    event Transfer(address indexed from, address indexed to, uint value);\r\n\r\n    function name() external pure returns (string memory);\r\n    function symbol() external pure returns (string memory);\r\n    function decimals() external pure returns (uint8);\r\n    function totalSupply() external view returns (uint);\r\n    function balanceOf(address owner) external view returns (uint);\r\n    function allowance(address owner, address spender) external view returns (uint);\r\n\r\n    function approve(address spender, uint value) external returns (bool);\r\n    function transfer(address to, uint value) external returns (bool);\r\n    function transferFrom(address from, address to, uint value) external returns (bool);\r\n\r\n    function DOMAIN_SEPARATOR() external view returns (bytes32);\r\n    function PERMIT_TYPEHASH() external pure returns (bytes32);\r\n    function nonces(address owner) external view returns (uint);\r\n\r\n    function permit(address owner, address spender, uint value, uint deadline, uint8 v, bytes32 r, bytes32 s) external;\r\n\r\n    event Mint(address indexed sender, uint amount0, uint amount1);\r\n    event Burn(address indexed sender, uint amount0, uint amount1, address indexed to);\r\n    event Swap(\r\n        address indexed sender,\r\n        uint amount0In,\r\n        uint amount1In,\r\n        uint amount0Out,\r\n        uint amount1Out,\r\n        address indexed to\r\n    );\r\n    event Sync(uint112 reserve0, uint112 reserve1);\r\n\r\n    function MINIMUM_LIQUIDITY() external pure returns (uint);\r\n    function factory() external view returns (address);\r\n    function token0() external view returns (address);\r\n    function token1() external view returns (address);\r\n    function getReserves() external view returns (uint112 reserve0, uint112 reserve1, uint32 blockTimestampLast);\r\n    function price0CumulativeLast() external view returns (uint);\r\n    function price1CumulativeLast() external view returns (uint);\r\n    function kLast() external view returns (uint);\r\n\r\n    function mint(address to) external returns (uint liquidity);\r\n    function burn(address to) external returns (uint amount0, uint amount1);\r\n    function swap(uint amount0Out, uint amount1Out, address to, bytes calldata data) external;\r\n    function skim(address to) external;\r\n    function sync() external;\r\n\r\n    function initialize(address, address) external;\r\n}\r\n\r\nstruct Cost {\r\n    address materialAddress;\r\n    uint amount;\r\n}\r\n\r\ninterface CommunityItem {\r\n    function mint(address account, uint256 amount) external;\r\n}\r\n\r\ncontract CommunityCrafting {\r\n    using SafeMath for uint256;\r\n\r\n    //IUniswapV2Router02 public immutable uniswapV2Router;\r\n\r\n    address private sunflowerTeam;\r\n\r\n    struct CommunityRecipe {\r\n        address itemAddress;\r\n        uint sff;\r\n        address owner;\r\n        bool exists;\r\n        uint createdAt;\r\n    }\r\n\r\n    mapping(address => CommunityRecipe) recipes;\r\n\r\n\r\n    constructor() {\r\n        // IUniswapV2Router02 _uniswapV2Router = IUniswapV2Router02(0xa5E0829CaCEd8fFDD4De3c43696c57F7D7A678ff);\r\n\r\n        // // set the rest of the contract variables\r\n        // uniswapV2Router = _uniswapV2Router;\r\n\r\n        sunflowerTeam = msg.sender;\r\n    }\r\n\r\n    function createRecipe(address itemAddress, uint sff, address owner) public {\r\n        require(!recipes[itemAddress].exists, \"RECIPE_ALREADY_EXISTS\");\r\n        require(sff > 0, \"COMMUNITY_RECIPE_REQUIRES_AMOUNT\");\r\n\r\n        recipes[itemAddress] = CommunityRecipe({\r\n            itemAddress: itemAddress,\r\n            sff: sff,\r\n            owner: owner,\r\n            exists: true,\r\n            createdAt: block.timestamp\r\n        });\r\n    }\r\n\r\n\r\n    // Function to receive Ether. msg.data must be empty\r\n    receive() external payable {}\r\n\r\n    function craft(address recipeAddress) public payable {\r\n        // Grab the SFF cost\r\n        CommunityRecipe memory recipe = recipes[recipeAddress];\r\n\r\n        require(recipe.exists, \"COMMUNITY_RECIPE_DOES_NOT_EXIST\");\r\n\r\n        payOut(recipe.sff, recipe.owner);\r\n\r\n        CommunityItem(recipeAddress).mint(msg.sender, 1);\r\n    }\r\n\r\n    function payOut(uint sff, address owner) public payable {\r\n    //     address[] memory path = new address[](2);\r\n    //     // Sunflower Token\r\n    //     path[0] = 0x0d500B1d8E8eF31E21C99d1Db9A6444d3ADf1270;\r\n    //     // WETH\r\n    //     path[1] = 0xdf9B4b57865B403e08c85568442f95c26b7896b0;\r\n\r\n    //     uint[] memory values = uniswapV2Router.getAmountsIn(sff, path);\r\n\r\n    //     // 20% to designer, 5% to team\r\n    //     uint totalEth = values[0].mul(125).div(100);\r\n    //     require(msg.value >= totalEth, \"INSUFFICENT_ETH\");\r\n\r\n    //     // Transfer tokens to this contract so we can provide liquidity\r\n    //     ERC20(0xdf9B4b57865B403e08c85568442f95c26b7896b0).transferFrom(msg.sender, address(this), values[1]);\r\n    //     // Approve the router just in case\r\n    //     ERC20(0xdf9B4b57865B403e08c85568442f95c26b7896b0).approve(0xa5E0829CaCEd8fFDD4De3c43696c57F7D7A678ff, values[1]);\r\n\r\n    //     (uint amountToken, uint amountETH, uint liquidity) = uniswapV2Router.addLiquidityETH{ value: values[0] }(\r\n    //         0xdf9B4b57865B403e08c85568442f95c26b7896b0,\r\n    //         // Sunflower Tokens to use\r\n    //         values[1],\r\n    //         0, \r\n    //         0,\r\n    //         0x000000000000000000000000000000000000dEaD,\r\n    //         block.timestamp\r\n    //     );\r\n\r\n    //     uint ethLeftover = msg.value.sub(amountETH);\r\n\r\n    //     // 80% of leftover to designer\r\n    //     uint designerCommission = ethLeftover.mul(80).div(100);\r\n    //     (bool sent, bytes memory data) = owner.call{value: designerCommission}(\"\");\r\n    //     require(sent, \"DESIGNER_COMMISION_FAILED\");\r\n\r\n    //     uint sunflowerCommision = ethLeftover - designerCommission;\r\n    //     (bool sentTeam, bytes memory data2) = sunflowerTeam.call{value: sunflowerCommision}(\"\");\r\n    //     require(sentTeam, \"TEAM_COMMISION_FAILED\");\r\n    }\r\n\r\n    function getRecipe(address recipe) public view returns (CommunityRecipe memory) {\r\n        return recipes[recipe];\r\n    }\r\n}\r\n",
  "sourcePath": "/Users/umar/Desktop/SunflowerFarmer/src/contracts/CommunityCrafting.sol",
  "compiler": {
    "name": "solc",
    "version": "0.7.6+commit.7338295f.Emscripten.clang"
  },
  "schemaVersion": "3.4.16",
  "updatedAt": "2023-12-09T15:16:47.182Z",
  "devdoc": {
    "kind": "dev",
    "methods": {},
    "version": 1
  },
  "userdoc": {
    "kind": "user",
    "methods": {},
    "version": 1
  }
}